:1000000012C02CC02BC02AC029C028C05BC126C08A
:1000100025C024C023C022C021C020C01FC01EC0D4
:100020001DC01CC01BC011241FBECFE5D4E0DEBF25
:10003000CDBF10E0A0E6B0E0E2E2F3E002C0059040
:100040000D92A23DB107D9F710E0A2EDB0E001C0DA
:100050001D92A33DB107E1F765D061C1D1CF10BCBE
:1000600087E689B9539A86E880BD549A08955F9BC4
:10007000FECF8CB10895CF92DF92FF920F931F9322
:10008000CF93DF938C01C62EF8941092D200EFDF4D
:100090008A33A9F0DD240894C108D1081C141D047A
:1000A00074F4F02EC02FD12F89938E01E0DF8A33B4
:1000B00031F02C2F2F1930E02C153D05ACF3F80151
:1000C00010827894DF91CF911F910F91FF90DF9074
:1000D000CF9008955D9BFECF8CB980E090E00895AD
:1000E000CF93DF93EC018881882329F02196F2DFFA
:1000F00089918823E1F7DF91CF9108958FB58160D1
:100100008FBD8EB580618EBD8EB584608EBD85E35A
:100110009CE09BBD8ABD8BEC93EF9DBD8CBD80E1C7
:1001200089BF0895CF93DF93CDB7DEB72C970FB675
:10013000F894DEBF0FBECDBF17BAC09AC19AC29A5B
:10014000C39AC49A8FE184BB95B38CE1982795BB81
:100150002FEF31EE44E0215030404040E1F700C045
:10016000000095B3892785BB7ADFC8DF789410E05B
:1001700000E05F9B46C0CE0101966CE07CDFCE01C3
:10018000019660E670E0C2D0282F392F2115310585
:1001900011F4A99AA898CE01019668E670E0B6D04D
:1001A000282F392F2115310529F4A89AA998AA9842
:1001B000AB98AC98CE01019660E770E0A7D0282FED
:1001C000392F2115310519F4AA9AAB98AC98CE01B4
:1001D00001966BE770E09AD0282F392F2115310551
:1001E00019F4AB9AAA98AC98CE01019666E870E033
:1001F0008DD0282F392F2115310519F4AC9AAA98E2
:10020000AB988091D200882309F4B3CF1092D2002A
:10021000143021F481E990E063DF0BC0183031F431
:10022000A99B04C087E990E05BDF03C01A3008F0A7
:1002300010E01F5F86B396B38027092F009508232F
:1002400000FF08C0A89AA998AA98AB98AC9880EA31
:1002500090E046DF01FF05C0A99AA89889EA90E0DE
:100260003FDF02FF08C0A99B06C0AA9AAB98AC98D2
:1002700081EB90E035DF03FF08C0A99B06C0AB9A75
:10028000AA98AC988CEB90E02BDF04FF08C0A99BE8
:1002900006C0AC9AAA98AB9887EC90E021DF06B331
:1002A0008091D200882309F464CFAC9A2FE088E1D2
:1002B00090E00FB6F894A895809341000FBE20936C
:1002C0004100FFCF1F920F920FB60F9211242F9370
:1002D0008F939F938091D200882369F0AC9A2FE08E
:1002E00088E190E00FB6F894A895809341000FBE86
:1002F00020934100FFCF81E08093D2009F918F91A6
:100300002F910F900FBE0F901F901895FB01DC01ED
:100310008D91019080190110D9F3990B0895F894EB
:02032000FFCF0D
:100322005057523D30320D005057523D30300D0083
:10033200534F555243453D33300D00534F555243B1
:10034200453D32310D00534F555243453D34310D39
:10035200005057523F0D00534F555243453F0D0039
:10036200505752204F46460D00505752204F4E0DC7
:1003720000534F555243452033300D00534F5552D1
:1003820043452032310D00534F55524345203431FD
:020392000D005C
:00000001FF
